{
  "_format": "hh-sol-artifact-1",
  "contractName": "Value",
  "sourceName": "contracts/Value.sol",
  "abi": [
    {
      "inputs": [
        {
          "internalType": "uint256",
          "name": "_val",
          "type": "uint256"
        }
      ],
      "name": "addValue",
      "outputs": [],
      "stateMutability": "nonpayable",
      "type": "function"
    },
    {
      "inputs": [],
      "name": "getValue",
      "outputs": [
        {
          "internalType": "uint256",
          "name": "",
          "type": "uint256"
        }
      ],
      "stateMutability": "view",
      "type": "function"
    },
    {
      "inputs": [
        {
          "internalType": "uint256",
          "name": "_val",
          "type": "uint256"
        }
      ],
      "name": "setValue",
      "outputs": [],
      "stateMutability": "nonpayable",
      "type": "function"
    }
  ],
  "bytecode": "0x608060405234801561001057600080fd5b5061019a806100206000396000f3fe608060405234801561001057600080fd5b50600436106100415760003560e01c8063209652551461004657806355241077146100645780635b9af12b14610080575b600080fd5b61004e61009c565b60405161005b9190610128565b60405180910390f35b61007e600480360381019061007991906100f0565b6100a5565b005b61009a600480360381019061009591906100f0565b6100af565b005b60008054905090565b8060008190555050565b600181908060018154018082558091505060019003906000526020600020016000909190919091505550565b6000813590506100ea8161014d565b92915050565b60006020828403121561010257600080fd5b6000610110848285016100db565b91505092915050565b61012281610143565b82525050565b600060208201905061013d6000830184610119565b92915050565b6000819050919050565b61015681610143565b811461016157600080fd5b5056fea26469706673582212205e4d7194e35bff53070f494dc931c958b2b3681e6de9e1607d8001229474fcc164736f6c63430008040033",
  "linkReferences": {},
  "deployedLinkReferences": {}
}